S00B00004C43442E7372656346
S11300000C942A000C943F000C943F000C943F0085
S11300100C943F000C943F000C943F000C943F0060
S11300200C943F000C943F000C943F000C943F0050
S11300300C943F000C943F000C943F000C943F0040
S11300400C943F000C943F000C943F000C943F0030
S11300500C943F0011241FBECFE5D8E0DEBFCDBF16
S113006010E0A0E6B0E0ECEEF4E002C005900D92E2
S1130070AC3AB107D9F70E943C020C9474020C9478
S11300800000813041F028F0823039F0833039F0BB
S113009008956BBB089568BB089565BB089562BB62
S11300A00895982F9770869586958695813021F1CD
S11300B030F08230F1F1833009F458C008956111B1
S11300C00EC04BB321E030E0B90102C0660F771FC8
S11300D09A95E2F7CB01809584238BBB08954BB3AB
S11300E021E030E0B90102C0660F771F9A95E2F76C
S11300F0CB01842B8BBB089561110EC048B321E062
S113010030E0B90102C0660F771F9A95E2F7CB0180
S11301108095842388BB089548B321E030E0B90179
S113012002C0660F771F9A95E2F7CB01842B88BB38
S1130130089561110EC045B321E030E0B90102C059
S1130140660F771F9A95E2F7CB018095842385BBD0
S1130150089545B321E030E0B90102C0660F771F6E
S11301609A95E2F7CB01842B85BB089561110EC0EB
S113017042B321E030E0B90102C0660F771F9A95BF
S1130180E2F7CB018095842382BB089542B321E03A
S113019030E0B90102C0660F771F9A95E2F7CB01F0
S11301A0842B82BB0895E0E6F0E080E041E050E07B
S11301B0982F969596959695382F377020812130F3
S11301C0A1F5913089F028F09230C9F0933011F103
S11301D063C09AB3BA0102C0660F771F3A95E2F77B
S11301E09B01292B2ABB58C097B3BA0102C0660FE2
S11301F0771F3A95E2F79B01292B27BB4DC094B397
S1130200BA0102C0660F771F3A95E2F79B01292BCA
S113021024BB42C091B3BA0102C0660F771F3A955E
S1130220E2F79B01292B21BB37C0913091F028F0D4
S11302309230D9F0933029F12FC02AB3BA0102C009
S1130240660F771F3A95E2F7962F909592239ABB03
S113025023C027B3BA0102C0660F771F3A95E2F7AD
S1130260962F9095922397BB17C024B3BA0102C06E
S1130270660F771F3A95E2F7962F9095922394BBD9
S11302800BC021B3BA0102C0660F771F3A95E2F79B
S1130290962F9095922391BB8F5F3296803209F00E
S11302A087CF0895CF93C82F8BB39C2F907F8F70E7
S11302B0892B8BBB6BB36F70692B80E00E9441006C
S11302C087B360E00E94410060E089E00E94510031
S11302D061E08BE00E9451008FE39CE90197F1F704
S11302E000C0000060E08BE00E9451008FE39CE9B5
S11302F00197F1F700C000006BB36F7020E1C29F5B
S1130300C0011124682B80E00E94410061E08BE071
S11303100E9451008FE39CE90197F1F700C00000AF
S113032060E08BE00E9451008FE39CE90197F1F7B4
S113033000C00000CF91089580EF8ABB8FE087BB97
S11303402FEF89EF90E0215080409040E1F700C00A
S1130350000083E30E94520182E30E94520188E27A
S11303600E9452018CE00E94520186E00E945201D8
S113037081E00E945201089581E00E9452018FE3BE
S11303809CE90197F1F700C0000080E80E94520147
S11303908FE39CE90197F1F700C000000895CF9323
S11303A0C82F8BB39C2F907F8F70892B8BBB6BB323
S11303B06F70692B80E00E94410061E089E00E9437
S11303C0510061E08BE00E9451008FE39CE90197AA
S11303D0F1F700C0000060E08BE00E9451008FE361
S11303E09CE90197F1F700C000006BB36F7020E146
S11303F0C29FC0011124682B80E00E94410061E08B
S11304008BE00E9451008FE39CE90197F1F700C053
S1130410000060E08BE00E9451008FE39CE90197AB
S1130420F1F700C00000CF910895CF93DF93EC0162
S11304308881882391F08FE39CE90197F1F700C04C
S1130440000089910E94CF018FE39CE90197F1F7A5
S113045000C0000088818111EECFDF91CF91089513
S1130460882329F0813011F4605C01C060E0862F9C
S113047080680E94520108950E94D3000E949C014A
S11304800E94BC012FEF89E698E121508040904002
S1130490E1F700C0000080EA90E00E9415022FEF0F
S11304A083ED90E3215080409040E1F700C00000CC
S11304B00E94BC012FEF89E698E1215080409040D2
S11304C0E1F700C0000065E081E00E94300281E4B1
S11304D00E94CF012FEF83ED90E3215080409040A4
S10F04E0E1F700C00000CCCFF894FFCF7F
S11304EC01000100010001000100010001000100F4
S11304FC01000100010001000100010001000100E4
S113050C01000100010001000100010001000100D3
S113051C01000100010001000100010001000100C3
S10F052C57656C636F6D6520416C6900BD
S9030000FC
