S00C0000504F52542E73726563D3
S11300000C942A000C943F000C943F000C943F0085
S11300100C943F000C943F000C943F000C943F0060
S11300200C943F000C943F000C943F000C943F0050
S11300300C943F000C943F000C943F000C943F0040
S11300400C943F000C943F000C943F000C943F0030
S11300500C943F0011241FBECFE5D8E0DEBFCDBF16
S113006010E0A0E6B0E0E6EFF0E002C005900D92EB
S1130070A436B107D9F70E9441000C9479000C947E
S1130080000080E690E00E94480080EE82BBFECF34
S1130090AC0121E08FEF01C02F5F9FEF920FFA01B7
S11300A0E90FF11D30813F3F89F4913041F028F090
S11300B0923039F0933039F019C08ABBEDCF87BB49
S11300C0EBCF84BBE9CF8FEF81BB0895913041F032
S11300D028F0923039F0933039F008C01ABADCCFE6
S11300E017BADACF14BAD8CF11BA08952430A0F2CF
S10900F00895F894FFCF0F
S10700F6FFFFFFFF06
S9030000FC
