:100000000C942A000C9434000C9434000C943400AA
:100010000C9434000C9434000C9434000C94340090
:100020000C9434000C9434000C9434000C94340080
:100030000C9434000C9434000C9434000C94340070
:100040000C9434000C9434000C9434000C94340060
:100050000C94340011241FBECFE5D8E0DEBFCDBF25
:100060000E9449020C9474020C940000813041F00B
:1000700028F0823039F0833039F008956BBB089551
:1000800068BB089565BB089562BB0895982F97706B
:10009000869586958695813021F130F08230F1F198
:1000A000833009F458C0089561110EC04BB321E0AC
:1000B00030E0B90102C0660F771F9A95E2F7CB01D5
:1000C000809584238BBB08954BB321E030E0B901C8
:1000D00002C0660F771F9A95E2F7CB01842B8BBB8A
:1000E000089561110EC048B321E030E0B90102C0AB
:1000F000660F771F9A95E2F7CB018095842388BB22
:10010000089548B321E030E0B90102C0660F771FBF
:100110009A95E2F7CB01842B88BB089561110EC03C
:1001200045B321E030E0B90102C0660F771F9A9510
:10013000E2F7CB018095842385BB089545B321E088
:1001400030E0B90102C0660F771F9A95E2F7CB0144
:10015000842B85BB089561110EC042B321E030E0CD
:10016000B90102C0660F771F9A95E2F7CB0180951F
:10017000842382BB089542B321E030E0B90102C07C
:10018000660F771F9A95E2F7CB01842B82BB089507
:1001900021E040E060E082E00E94460108950F9374
:1001A0001F93CF93C82F8B010E9460010E9477019B
:1001B0008830F1F480EA0E9469010E947701883159
:1001C000C9F48C2F0E9469010E9477018832A1F442
:1001D000F80180810E9469010E947701883271F4E0
:1001E0000E947701883261F40E94660180E009C0B4
:1001F00081E007C081E005C081E003C081E001C06B
:1002000081E0CF911F910F9108950F931F93CF938A
:10021000C82F8B010E9460010E947701883039F558
:1002200080EA0E9469010E947701883111F58C2FC4
:100230000E9469010E9477018832E9F40E946001FE
:100240000E9477018031C9F481EA0E9469010E940D
:1002500077018034A1F40E947001F80180830E942C
:100260007701883571F40E94660180E00BC081E05F
:1002700009C081E007C081E005C081E003C081E0E2
:1002800001C081E0CF911F910F91089596B79460BE
:1002900096BF813019F0823031F008C08DE080B90E
:1002A00081E081B903C087E080B911B822B91798FD
:1002B0004111109A662319F086B7806486BF0895AD
:1002C00084EA86BF06B607FEFDCF089584E986BF9F
:1002D000089583B984E886BF06B607FEFDCF08956A
:1002E00084E886BF06B607FEFDCF83B1089581B1CD
:1002F000887F0895CF93C82F8BB39C2F907F8F70EA
:10030000892B8BBB6BB36F70692B80E00E9436002A
:1003100087B360E00E94360060E089E00E944600FA
:1003200061E08BE00E9446008FE39CE90197F1F7C2
:1003300000C0000060E08BE00E9446008FE39CE973
:100340000197F1F700C000006BB36F7020E1C29F0E
:10035000C0011124682B80E00E94360061E08BE030
:100360000E9446008FE39CE90197F1F700C000006E
:1003700060E08BE00E9446008FE39CE90197F1F773
:1003800000C00000CF91089580EF8ABB8FE087BB4B
:100390002FEF89EF90E0215080409040E1F700C0BE
:1003A000000083E30E947A0182E30E947A0188E2DE
:1003B0000E947A018CE00E947A0186E00E947A0114
:1003C00081E00E947A01089581E00E947A018FE322
:1003D0009CE90197F1F700C0000080E80E947A01D3
:1003E0008FE39CE90197F1F700C000000895CF93D7
:1003F000C82F8BB39C2F907F8F70892B8BBB6BB3D7
:100400006F70692B80E00E94360061E089E00E94F5
:10041000460061E08BE00E9446008FE39CE9019773
:10042000F1F700C0000060E08BE00E9446008FE31F
:100430009CE90197F1F700C000006BB36F7020E1F9
:10044000C29FC0011124682B80E00E94360061E049
:100450008BE00E9446008FE39CE90197F1F700C012
:10046000000060E08BE00E9446008FE39CE901976A
:10047000F1F700C00000CF910895882329F0813062
:1004800011F4605C01C060E0862F80680E947A01F0
:100490000895CF93DF9300D0CDB7DEB70E94C4019B
:1004A00089E3898381E48A838FEF81BB0E94C8003E
:1004B000BE016E5F7F4F81E00E94CF008FE39CE919
:1004C0000197F1F700C00000BE016F5F7F4F81E030
:1004D0000E9405010E94E40168E080E00E943D0264
:0C04E00089810E94F701F8CFF894FFCF4B
:00000001FF
