:100000000C942A000C9434000C9434000C943400AA
:100010000C9434000C9434000C9434000C94340090
:100020000C9434000C9434000C9434000C94340080
:100030000C9434000C9434000C9434000C94340070
:100040000C9434000C9434000C9434000C94340060
:100050000C94340011241FBECFE5D8E0DEBFCDBF25
:100060000E940E010C9436010C94000021E040E047
:1000700060E082E00E94DA000895FF920F931F93E0
:10008000CF93DF93F82E8B01EA010E94F4000E94C7
:100090000B01883041F580EA0E94FD000E940B01AF
:1000A000883119F58F2D0E94FD000E940B018832C6
:1000B000F1F4209781F0F80180810E94FD000E94F8
:1000C0000B018832B1F48FE39CE90197F1F700C08E
:1000D0000000219781F70E940B01883261F40E9491
:1000E000FA0080E009C081E007C081E005C081E03E
:1000F00003C081E001C081E0DF91CF911F910F919A
:10010000FF900895EF92FF920F931F93CF93C82F04
:100110007B018A010E94F4000E940B018830C9F51E
:1001200080EA0E94FD000E940B018831A1F58C2F0E
:100130000E94FD000E940B01883279F50E94F400B4
:100140000E940B01803159F581EA0E94FD000E9456
:100150000B01803431F501151105B9F08FE39CE9ED
:100160000197F1F700C000000E940401F7018083AD
:100170008FE39CE90197F1F700C000000E940B019A
:10018000883589F40150110949F70E94FA0080E08E
:100190000BC081E009C081E007C081E005C081E0BB
:1001A00003C081E001C081E0CF911F910F91FF90CA
:1001B000EF90089596B7946096BF813019F0823021
:1001C00031F008C08DE080B981E081B903C087E0DB
:1001D00080B911B822B917984111109A662319F005
:1001E00086B7806486BF089584EA86BF06B607FE98
:1001F000FDCF089584E986BF089583B984E886BF5A
:1002000006B607FEFDCF089584E886BF06B607FE52
:10021000FDCF83B1089581B1887F0895CF93DF9397
:100220001F92CDB7DEB719828FEF81BB0E943600D7
:1002300041E050E060EE70E081E00E943D008FE31D
:100240009CE90197F1F700C0000041E050E0BE01D9
:100250006F5F7F4F81E00E9482008FE39CE90197EE
:10026000F1F700C00000898182BBFDCFF894FFCF79
:00000001FF
