S00D00004550524F4D2E7372656394
S11300000C942A000C9434000C9434000C943400A6
S11300100C9434000C9434000C9434000C9434008C
S11300200C9434000C9434000C9434000C9434007C
S11300300C9434000C9434000C9434000C9434006C
S11300400C9434000C9434000C9434000C9434005C
S11300500C94340011241FBECFE5D8E0DEBFCDBF21
S11300600E9453020C9481020C940000813041F0F0
S113007028F0823039F0833039F008956BBB08954D
S113008068BB089565BB089562BB0895982F977067
S1130090869586958695813021F130F08230F1F194
S11300A0833009F458C0089561110EC04BB321E0A8
S11300B030E0B90102C0660F771F9A95E2F7CB01D1
S11300C0809584238BBB08954BB321E030E0B901C4
S11300D002C0660F771F9A95E2F7CB01842B8BBB86
S11300E0089561110EC048B321E030E0B90102C0A7
S11300F0660F771F9A95E2F7CB018095842388BB1E
S1130100089548B321E030E0B90102C0660F771FBB
S11301109A95E2F7CB01842B88BB089561110EC038
S113012045B321E030E0B90102C0660F771F9A950C
S1130130E2F7CB018095842385BB089545B321E084
S113014030E0B90102C0660F771F9A95E2F7CB0140
S1130150842B85BB089561110EC042B321E030E0C9
S1130160B90102C0660F771F9A95E2F7CB0180951B
S1130170842382BB089542B321E030E0B90102C078
S1130180660F771F9A95E2F7CB01842B82BB089503
S113019021E040E060E082E00E9450010895EF9287
S11301A0FF921F93CF93DF93182F7B01EA010E94E4
S11301B06A010E948101883019F580EA0E94730166
S11301C00E9481018831F1F42097B1F0812F0E94BF
S11301D073010E9481018832B9F4F70180810E9481
S11301E073010E948101883289F40E94810188325E
S11301F079F41F5F219751F70E94700180E009C0D4
S113020081E007C081E005C081E003C081E001C056
S113021081E0DF91CF911F91FF90EF9008950F93AC
S11302201F93CF93C82F8B010E946A010E94810102
S1130230883039F580EA0E9473010E948101883177
S113024011F58C2F0E9473010E9481018832E9F418
S11302500E946A010E9481018031C9F481EA0E94EE
S113026073010E9481018034A1F40E947A01F80193
S113027080830E948101883571F40E94700180E0BE
S11302800BC081E009C081E007C081E005C081E0C6
S113029003C081E001C081E0CF911F910F910895C7
S11302A096B7946096BF813019F0823031F008C05F
S11302B08DE080B981E081B903C087E080B911B8CD
S11302C022B917984111109A662319F086B78064F1
S11302D086BF089584EA86BF06B607FEFDCF08955B
S11302E084E986BF089583B984E886BF06B607FE0D
S11302F0FDCF089584E886BF06B607FEFDCF83B11F
S1130300089581B1887F0895CF93C82F8BB39C2F14
S1130310907F8F70892B8BBB6BB36F70692B80E0E0
S11303200E94360087B360E00E94360060E089E0F6
S11303300E94460061E08BE00E9446008FE39CE946
S11303400197F1F700C0000060E08BE00E944600D6
S11303508FE39CE90197F1F700C000006BB36F7065
S113036020E1C29FC0011124682B80E00E94360066
S113037061E08BE00E9446008FE39CE90197F1F76E
S113038000C0000060E08BE00E9446008FE39CE91F
S11303900197F1F700C00000CF91089580EF8ABB68
S11303A08FE087BB2FEF89EF90E021508040904091
S11303B0E1F700C0000083E30E94840182E30E940D
S11303C0840188E20E9484018CE00E94840186E01A
S11303D00E94840181E00E948401089581E00E94CA
S11303E084018FE39CE90197F1F700C0000080E8E5
S11303F00E9484018FE39CE90197F1F700C000009B
S11304000895CF93C82F8BB39C2F907F8F70892B27
S11304108BBB6BB36F70692B80E00E94360061E088
S113042089E00E94460061E08BE00E9446008FE371
S11304309CE90197F1F700C0000060E08BE00E94A6
S113044046008FE39CE90197F1F700C000006BB30D
S11304506F7020E1C29FC0011124682B80E00E94CC
S1130460360061E08BE00E9446008FE39CE901972F
S1130470F1F700C0000060E08BE00E9446008FE3CB
S11304809CE90197F1F700C00000CF9108958823FB
S113049029F0813011F4605C01C060E0862F80682F
S11304A00E9484010895CF93DF9300D0CDB7DEB7C7
S11304B00E94CE0119828DE68A838FEF81BB0E9450
S11304C0C80041E050E0BE016E5F7F4F80E00E94B3
S11304D0CF008FE39CE90197F1F700C0000041E0F1
S11304E050E0BE016F5F7F4F80E00E940F010E94C9
S11304F0EE0168E080E00E94470289810E940102C7
S1090500F8CFF894FFCFD0
S9030000FC
