:100000000C942A000C943F000C943F000C943F0089
:100010000C943F000C943F000C943F000C943F0064
:100020000C943F000C943F000C943F000C943F0054
:100030000C943F000C943F000C943F000C943F0044
:100040000C943F000C943F000C943F000C943F0034
:100050000C943F0011241FBECFE5D8E0DEBFCDBF1A
:1000600010E0A0E6B0E0EEE0F3E002C005900D92F3
:10007000A03AB107D9F70E9474010C9485010C9441
:100080000000E0E6F0E080E041E050E0982F969537
:1000900096959695382F377020812130A1F59130B3
:1000A00089F028F09230C9F0933011F163C09AB30F
:1000B000BA0102C0660F771F3A95E2F79B01292B20
:1000C0002ABB58C097B3BA0102C0660F771F3A9592
:1000D000E2F79B01292B27BB4DC094B3BA0102C0A4
:1000E000660F771F3A95E2F79B01292B24BB42C08C
:1000F00091B3BA0102C0660F771F3A95E2F79B01F0
:10010000292B21BB37C0913091F028F09230D9F0E3
:10011000933029F12FC02AB3BA0102C0660F771FAE
:100120003A95E2F7962F909592239ABB23C027B376
:10013000BA0102C0660F771F3A95E2F7962F9095A5
:10014000922397BB17C024B3BA0102C0660F771F72
:100150003A95E2F7962F9095922394BB0BC021B36A
:10016000BA0102C0660F771F3A95E2F7962F909575
:10017000922391BB8F5F3296803209F087CF08952A
:10018000982F9770869586958695813021F130F06D
:100190008230F1F1833009F458C0089561110EC026
:1001A0004BB321E030E0B90102C0660F771F9A958A
:1001B000E2F7CB01809584238BBB08954BB321E0FC
:1001C00030E0B90102C0660F771F9A95E2F7CB01C4
:1001D000842B8BBB089561110EC048B321E030E041
:1001E000B90102C0660F771F9A95E2F7CB0180959F
:1001F000842388BB089548B321E030E0B90102C0F0
:10020000660F771F9A95E2F7CB01842B88BB089580
:1002100061110EC045B321E030E0B90102C0660FA4
:10022000771F9A95E2F7CB018095842385BB0895CB
:1002300045B321E030E0B90102C0660F771F9A95FF
:10024000E2F7CB01842B85BB089561110EC042B348
:1002500021E030E0B90102C0660F771F9A95E2F7FE
:10026000CB018095842382BB089542B321E030E026
:10027000B90102C0660F771F9A95E2F7CB01842B74
:1002800082BB0895282F27708695869586958130A4
:1002900079F028F08230A9F08330E1F024C089B3EE
:1002A00090E002C0959587952A95E2F781700895B0
:1002B00086B390E002C0959587952A95E2F7817004
:1002C000089583B390E002C0959587952A95E2F74B
:1002D0008170089580B390E002C0959587952A9526
:1002E000E2F78170089508950E94410088E10E941C
:1002F0004201813029F461E08EE10E94C000F6CF16
:0E03000060E08EE10E94C000F1CFF894FFCFC4
:10030E0001000100010001000100010001000100D7
:10031E0001000100010001000100010001000100C7
:10032E0001000100010001000100010001000100B7
:10033E0001000100010001000100010001000100A7
:00000001FF
